:020000040000FA
:060000000A128A110E280D
:10000800FE00030EF1000408F2000A08F3000A12C9
:100018008A1149290A128A11112883133530FD00E3
:100028000230FE001230FF002B3084000A128A11C1
:1000380003220A128A11B501B601B701F601F701C8
:10004800F801F90183010A128A11D12983120313D5
:10005800A501A11F302831283828A009A109A00A24
:100068000319A10AA501A50AA31F3B283C28452876
:10007800A209A309A20A0319A30A0130F40074080B
:10008800A506A601A7012008210403194C284D281C
:100098008428A401A40A5B2801300310A00DA10D37
:1000A800FF3E031D51280130F4007408A407A11F66
:1000B8005E285F28502801300310A60DA70DFF3ECB
:1000C800031D602821082302031D6C282008220232
:1000D800031C6F28702877282008A2022108031C17
:1000E800A303A302261401300310A10CA00CFF3EA9
:1000F800031D78280130A402031D832884285F2863
:1001080025080319882889288E28A609A709A60A78
:100118000319A70A2708A1002608A00008006430D0
:1001280083120313A0000030A1007908A800A901D8
:100138002808A2002908A3000A128A112A200A12F4
:100148008A11831203132008AA002A08F8006430D1
:10015800A0000030A1007908A800A9012808A20081
:100168002908A3000A128A11EE200A128A118312A2
:1001780003132008AA002A08F6000A30A00000305D
:10018800A1007608A800A9012808A2002908A30050
:100198000A128A112A200A128A11831203132008CC
:1001A800AA002A08F7000A30A0000030A10076084B
:1001B800A800A9012808A2002908A3000A128A1188
:1001C800EE200A128A11831203132008AA002A08B3
:1001D800F600080083120313A501A31FF428F528CD
:1001E800FC28A209A309A20A0319A30AA501A50AC2
:1001F800A11FFF2800290529A009A109A00A0319A0
:10020800A10A2008210403190A290B293A29A40163
:10021800A40A192901300310A00DA10DFF3E031DEA
:100228000F290130F4007408A407A11F1C291D29F7
:100238000E2921082302031D232920082202031C5A
:10024800262927292D292008A2022108031CA303F7
:10025800A30201300310A10CA00CFF3E031D2E29A0
:100268000130A402031D39293A291D29250803193B
:100278003E293F294429A209A309A20A0319A30A6E
:100288002308A1002208A00008000B1D4C294D29B5
:100298009429831203130911091478082B3E84004A
:1002A8008313000888000130B5000030B60035031C
:1002B8003604031D602961296C29091089147708FF
:1002C8002B3E8400000888000230B5000030B600DC
:1002D800023035063604031D722973297C298910DA
:1002E800091576082B3E840000088800B501B60180
:1002F8000B11FF3081000C1F8229832994291F0CC0
:10030800F000700C0F39003A031D8B298C298F29B6
:100318001E08870093291E08F0007008F9000C13C6
:1003280073088A0072088400710E8300FE0E7E0E28
:1003380009000330831603178800FF308900033053
:10034800831603138500870188018901831203132B
:1003580085018601870188018901831603130F131C
:100368008F160F120F1481128111011581140114B7
:100378008B178B160B110B170C17831203130C1307
:10038800831603139F131F129F12831203131F1741
:100398009F17C3309F051F1408000A128A119D2158
:1003A8000A128A11831203139F14831203139F18CE
:1003B800DE29DF29F6291F0CF500750C0F39013AE3
:1003C800031DE729E829EB29C3309F05EF291F08FA
:1003D800C33904389F002130F500F50BF129831249
:1003E80003139F140A128A1193200A128A11D92919
:1003F8000A128A110E287E088A007F0882000A12D3
:100408008A11FF210A128A118000840A04087D06D5
:1004180003190034FF0A0319FE0A032A3F3406347D
:100428005B344F3466346D347D3407347F346F3435
:04400E00C420FF3F8C
:00000001FF
