:020000040000FA
:060000000A128A110E280D
:10000800FE00030EF0000408F1000A08F2000A12CC
:100018008A1144290A128A11112883132A30FD00F3
:100028000130FE00E830FF00203084000A128A11F7
:10003800D9210A128A11F801F90183010A128A11D9
:10004800C12983120313AB01F41F2B282C28332852
:10005800F309F409F30A0319F40AAB01AB0AF61F12
:10006800362837284028F509F609F50A0319F60A4B
:100078000130F7007708AB06AC01AD0173087404D2
:100088000319472848287F28AA01AA0A56280130B8
:100098000310F30DF40DFF3E031D4C280130F7004B
:1000A8007708AA07F41F59285A284B28013003104B
:1000B800AC0DAD0DFF3E031D5B2874087602031DD1
:1000C800672873087502031C6A286B28722873084E
:1000D800F5027408031CF603F6022C140130031011
:1000E800F40CF30CFF3E031D73280130AA02031D14
:1000F8007E287F285A282B080319832884288928D2
:10010800AC09AD09AC0A0319AD0A2D08F4002C0896
:10011800F30008006430F3000030F4008312031386
:100128003408AE00AF012E08F5002F08F6000A12B9
:100138008A1125200A128A11730883120313B0004A
:100148003008B3006430F3000030F4003408AE0027
:10015800AF012E08F5002F08F6000A128A11E920CF
:100168000A128A11730883120313B0003008FA00C8
:100178000A30F3000030F4007A08AE00AF012E0810
:10018800F5002F08F6000A128A1125200A128A1192
:10019800730883120313B0003008B2000A30F3006A
:1001A8000030F4007A08AE00AF012E08F5002F08E1
:1001B800F6000A128A11E9200A128A1173088312BA
:1001C8000313B0003008FA00080083120313AB01D0
:1001D800F61FEF28F028F728F509F609F50A03199C
:1001E800F60AAB01AB0AF41FFA28FB280029F30929
:1001F800F409F30A0319F40A7308740403190529A6
:1002080006293529AA01AA0A142901300310F30D79
:10021800F40DFF3E031D0A290130F7007708AA07ED
:10022800F41F17291829092974087602031D1E29A5
:1002380073087502031C2129222928297308F5024D
:100248007408031CF603F60201300310F40CF30CD7
:10025800FF3E031D29290130AA02031D342935292F
:1002680018292B08031939293A293F29F509F609CC
:10027800F50A0319F60A7608F4007508F300080071
:100288000B1D472948297A298312031309110914D8
:100298003308203E84008313000888000130F800EA
:1002A8000030F90078037904031D5B295C2967296C
:1002B800091089143208203E8400000888000230A2
:1002C800F8000030F900023078067904031D6D2922
:1002D8006E297729891009157A08203E84000008BC
:1002E8008800F801F9010B11FF3081000B1C7D29F2
:1002F8007E298F29831203130618832984298729C5
:100308000508013E850086188A298B298E2905084B
:10031800FF3E85000B1072088A0071088400700E79
:100328008300FE0E7E0E09008316031788018901DB
:100338008316031306148614850187018801890131
:1003480083120313850186018701880189018316B9
:1003580003130F138F160F120F1481128111011539
:10036800811401148B178B150B108B160B1181132D
:10037800033095001614961408000A128A11982161
:100388000A128A11831203130508B1003108B40058
:100398000A128A118E200A128A11C6290A128A1193
:1003A8000E287E088A007F0882000A128A11D52149
:1003B8000A128A118000840A04087D060319003491
:1003C800FF0A0319FE0AD9293F3406345B344F3437
:0C03D80066346D347D3407347F346F349C
:04400E00D420FF3F7C
:00000001FF
