:020000040000FA
:060000000A128A11122809
:10000800FE00030E83120313A3000408A4000A08C9
:10001800A5007F08A6000A128A1125280A128A114B
:100028001528F801F901FA01FB01FC01FD01831211
:100038000313B001B101B201B30183010A128A119D
:10004800112D0C1F2828292881281F0CA000200CFE
:100058000F39003A031D3128322839281E08A0001C
:100068000310200C7B3E95007E281F0CA000200C5E
:100078000F39013A031D4128422849281E08A000CB
:100088000310200C7C3E9B007E281F0CA000200C37
:100098000F39023A031D512852287E281E08A00055
:1000A8002008FD0056307D0203185B285C28612873
:1000B8000A128A11F1250A128A11AB307D0203183F
:1000C80066286728722856307D02031C6C286D2824
:1000D80072280A128A11D8250A128A11AB307D02B9
:1000E800031C772878287E280A128A11BF250A124D
:1000F8008A117E28831203130C130B1C842885286D
:100108002E298618882889288D2808100816881608
:100118009428861C9028912894280814081288127C
:100128000619972898289C28881008178817A32844
:10013800061D9F28A028A3288814081388130608DA
:100148001F10090817300A128A110A260A128A1182
:1001580083120313A0002008FC007B08A0000310F2
:10016800200C7B3E95007A08A0000310200C7C3EF2
:100178009B0056307C020318C228C328C8280A12DC
:100188008A11F1250A128A11AB307C020318CD2896
:10019800CE28D92856307C02031CD328D428D92845
:1001A8000A128A11D8250A128A11AB307C02031C64
:1001B800DE28DF28E4280A128A11BF250A128A11CC
:1001C800243083120313A2008330A100CE30A00094
:1001D800A00BEC28A10BEC28A20BEC280000831242
:1001E80003131F14061AF928FA282C2909081730AE
:1001F800A0002008F0007D080A128A11A3250A121F
:100208008A11203083120313A0002008F000790817
:100218000A128A11A3250A128A11213083120313A4
:10022800A0002008F00078080A128A11A3250A12F3
:100238008A11063083120313A2001330A100AD30D7
:10024800A000A00B2529A10B2529A20B25292D29C2
:1002580006080B10831203138C1E33293429662ACF
:1002680077301A06031D39293A2981290A128A1179
:10027800D8250A128A11063083120313A2001330FC
:10028800A100AD30A000A00B4729A10B4729A20B64
:1002980047297C30F1008430F2000A128A117D254A
:1002A8000A128A11831203130814081688160813F1
:1002B80088130030F1008330F2000A128A117D257C
:1002C8000A128A11E130F1008330F2000A128A1111
:1002D8007D250A128A112B30F1008330F2000A12B0
:1002E8008A117D250A128A117B30F1008330F200D1
:1002F8000A128A117D250A128A1173308312031398
:100308001A06031D88298929CA2908140817881775
:10031800081288126A30F1008430F2000A128A1139
:100328007D250A128A11023083120313A2000430B9
:10033800A100B930A000A00B9F29A10B9F29A20BF7
:100348009F29A6290030F1008330F2000A128A1191
:100358007D250A128A113730F1008430F2000A1222
:100368008A117D250A128A115430F1008330F20077
:100378000A128A117D250A128A11A230F1008330EF
:10038800F2000A128A117D250A128A11613083123D
:1003980003131A06031DD129D229182A0A128A1111
:1003A800F1250A128A1183120313881208170816F6
:1003B80088131C30F1008430F2000A128A117D255E
:1003C8000A128A11043083120313A2000C30A10010
:1003D8003330A000A00BEE29A10BEE29A20BEE29C9
:1003E8000030F1008330F2000A128A117D250A12CA
:1003F8008A11C230F1008330F2000A128A117D2579
:100408000A128A112B30F1008330F2000A128A1185
:100418007D250A128A117B30F1008330F2000A121E
:100428008A117D250A128A116430831203131A0671
:10043800031D1F2A202A662A0A128A11BF250A12BA
:100448008A1183120313881608130812881751306B
:10045800F1008430F2000A128A117D250A128A11ED
:10046800043083120313A2000C30A1003330A00023
:10047800A00B3C2AA10B3C2AA20B3C2A0030F1001D
:100488008330F2000A128A117D250A128A11E1309E
:10049800F1008330F2000A128A117D250A128A11AE
:1004A8002B30F1008330F2000A128A117D250A12DE
:1004B8008A117B30F1008330F2000A128A117D25FF
:1004C8000A128A11831203132608FF0025088A00DE
:1004D80024088400230E8300FE0E7E0E0900FF1BF5
:1004E8007D2A83137F1883170008840A0319FF0ADB
:1004F80008007F087F398A000408840A0319FF0A64
:0205080082006F
:100600002D342D342D342D342D342D342D342D34E2
:100610002D342D342D342D342D342D342D342D34D2
:100620002D342D342D342D342D342D342D342D34C2
:100630002D342D342D342D342D342D342D342D34B2
:100640002D342D342D342D342D342D342D342D34A2
:100650002D342D3400340D3420345034723465344C
:10066000733469346F346E3465342034613420342B
:1006700070346134723461342034673469347234D4
:10068000613472342034613420346C346134203469
:1006900069347A347134753469346534723464344D
:1006A000613420340D3400340D342034413470343E
:1006B00061346334683465342034613420347034F8
:1006C0006134723461342034673469347234613493
:1006D00072342034613420346C3461342034693411
:1006E0007A34713475346934653472346434613405
:1006F00020340D3400340D342034503472346534D9
:10070000733469346F346E34653420346434203487
:100710007034613472346134203467346934723433
:10072000613472342034613420346C3461342034C8
:10073000643465347234653463346834613420342D
:100740000D3400340D34203441347034613463345A
:100750006834653420346434203470346134723445
:100760006134203467346934723461347234203433
:1007700064346534723465346334683461342034ED
:100780000D3400340D342034503472346534633405
:1007900069346F346E3465342034733420347034EB
:1007A0006134723461342034723465347434723498
:1007B0006F346334653464346534723420340D34FA
:1007C00000340D3420345034723465347334693459
:1007D0006F346E34653420347334203470346134B3
:1007E00072346134203472346534743472346F344A
:1007F0006334653464346534723420340D34003429
:100800000D342034503472346534733469346F34A9
:100810006E3465342034773420347034613472346B
:10082000613420346134763461346E347A34613426
:10083000723420340D3400340D342034473469349C
:10084000723461346E3464346F3420346134203453
:100850006C346134203469347A34713475346934D9
:10086000653472346434613420340D3400340D3412
:100870002034413470346134633468346534203456
:10088000773420347034613472346134203461340C
:10089000763461346E347A346134723420340D34F9
:1008A00000340D34203447346934723461346E348A
:1008B00064346F342034613420346C346134203437
:1008C000643465347234653463346834613420349C
:1008D0000D3400340D3420345234653474347234A1
:1008E0006F34633465346434693465346E3464342D
:1008F0006F3420340D3400340D34203441347634D8
:1009000061346E347A3461346E3464346F3420343C
:100910000D340034073083160317880089010F3027
:100920008316031385008614061586150616071010
:1009300087100711071387170810881008128812EC
:100940000813881383120313850186018701880128
:100950008901831603130F178F160F160F148113B7
:100960001E30950096141615961516169F131F1215
:100970009F12831203131F083F3980389F001F14F2
:10098000C3309F05203083120313A700A70BC62C8A
:1009900000008316031307158714F93092003F30C7
:1009A0008312031397051708F0390C3897000F309E
:1009B00095001D08F0390C389D000F309B00CF309A
:1009C00097051D129D128C100330920412158C1C79
:1009D000EA2CEB2CE72C8C108316031307118710DD
:1009E0008B170B170C17831203130C130B148B1597
:1009F0008316031318121815831603178715D230A0
:100A00008316031399009A0183120313981718137E
:100A10001816831603139816831203138C120C12E4
:100A200008000A128A118A240A128A1183120313F7
:100A30009F1488140030A8008430A9000A128A117B
:100A400055250A128A11831203139F18282D292D68
:100A5000232D1F0CAF002F0C0F39003A031D312D31
:100A6000322D372D1F08C33904389F00472D1F0C26
:100A7000AF002F0C0F39013A031D3F2D402D452D9E
:100A80001F08C33908389F00472DC3309F05203009
:100A900083120313AF00AF0B4B2D0000831203131F
:100AA0009F14232D0A128A1112282A30831203134D
:100AB000AA002A08AD00622D2E080A128A111B26F0
:100AC0000A128A11831203132908AB002808AA000E
:100AD000A80A0319A90A2B08FF002A0884000A1291
:100AE0008A1173220A128A11AC002C08AE002E085B
:100AF000031D7B2D7C2D5C2D08007330F3007308E3
:100B0000F600882D77080A128A1125260A128A1102
:100B10007208F4007108F300F10A0319F20A74086C
:100B200083120313FF00730884000A128A117322D0
:100B30000A128A11F5007508F7007708031DA12D28
:100B4000A22D822D0800F1007008831203178D007A
:100B500071088C008B13831603178C130C155530FA
:100B60008D00AA308D008C14831203130D1EB92D35
:100B7000BA2DB42D0D12831603170C110800831221
:100B8000031307140630F1003030F000F00BC62DCF
:100B9000F10BC62D00008312031307102F30F10054
:100BA000BF30F000F00BD22DF10BD22DD72D080065
:100BB0008312031307140430F100E430F000F00B4B
:100BC000DF2DF10BDF2D00008312031307103130EE
:100BD000F1000B30F000F00BEB2DF10BEB2DF02DB5
:100BE00008008312031307140330F1009730F0005C
:100BF000F00BF82DF10BF82DFD2D831203130710C8
:100C00003230F1005830F000F00B042EF10B042EBE
:100C100000000800F1007108831203178D0083168D
:100C200003178C130C14831203170C08F0007008C0
:100C3000F2007208080083120313A7000C1E212E75
:100C4000222E1E2E270899000800F000831203139D
:0E0C50000C1E2B2E2C2E262E7008990008004C
:04400E00C420FF3F8C
:00000001FF
