:020000040000FA
:060000000A128A11122809
:10000800FE00030E83120313A3000408A4000A08C9
:10001800A5007F08A6000A128A1125280A128A114B
:100028001528F801F901FA01FB01FC01FD01831211
:100038000313B001B101B201B30183010A128A119D
:10004800112C0C1F2828292881281F0CA000200CFF
:100058000F39003A031D3128322839281E08A0001C
:100068000310200C7C3E95007E281F0CA000200C5D
:100078000F39013A031D4128422849281E08A000CB
:100088000310200C7C3E9B007E281F0CA000200C37
:100098000F39023A031D512852287E281E08A00055
:1000A8002008FD0056307D0203185B285C28612873
:1000B8000A128A11D5240A128A11AB307D0203185C
:1000C80066286728722856307D02031C6C286D2824
:1000D80072280A128A11BC240A128A11AB307D02D6
:1000E800031C772878287E280A128A11A3240A126A
:1000F8008A117E28831203130C130B1C842885286D
:10010800A4288618882889288D2808100816881693
:100118009428861C9028912894280814081288127C
:100128000619972898289C28881008178817A32844
:10013800061D9F28A028A3288814081388130B10CD
:100148008C1EA728A828DA2977301A06031DAD289F
:10015800AE28F5280A128A11BC240A128A11063020
:1001680083120313A2001330A100AD30A000A00B2E
:10017800BB28A10BBB28A20BBB287C30F100833025
:10018800F2000A128A117D240A128A1183120313BB
:10019800081408168816081388130030F1008230F6
:1001A800F2000A128A117D240A128A11E130F10044
:1001B8008230F2000A128A117D240A128A112B3029
:1001C800F1008230F2000A128A117D240A128A1183
:1001D8007B30F1008230F2000A128A117D240A1263
:1001E8008A117330831203131A06031DFC28FD2895
:1001F8003E29081408178817081288126A30F10077
:100208008330F2000A128A117D240A128A11023000
:1002180083120313A2000430A100B930A000A00B80
:100228001329A10B1329A20B13291A290030F10055
:100238008230F2000A128A117D240A128A1137309C
:10024800F1008330F2000A128A117D240A128A1101
:100258005430F1008230F2000A128A117D240A1209
:100268008A11A230F1008230F2000A128A117D242C
:100278000A128A116130831203131A06031D4529D5
:1002880046298C290A128A11D5240A128A11831246
:10029800031388120817081688131C30F1008330DE
:1002A800F2000A128A117D240A128A11043083127C
:1002B8000313A2000C30A1003330A000A00B622968
:1002C800A10B6229A20B62290030F1008230F200F2
:1002D8000A128A117D240A128A11C230F100823072
:1002E800F2000A128A117D240A128A112B30F100B9
:1002F8008230F2000A128A117D240A128A117B3098
:10030800F1008230F2000A128A117D240A128A1141
:100318006430831203131A06031D93299429DA29DA
:100328000A128A11A3240A128A1183120313881647
:100338000813081288175130F1008330F2000A12AE
:100348008A117D240A128A11043083120313A20031
:100358000C30A1003330A000A00BB029A10BB029AC
:10036800A20BB0290030F1008230F2000A128A1183
:100378007D240A128A11E130F1008230F2000A125B
:100388008A117D240A128A112B30F1008230F20082
:100398000A128A117D240A128A117B30F1008230F8
:1003A800F2000A128A117D240A128A118312031399
:1003B8002608FF0025088A0024088400230E8300ED
:1003C800FE0E7E0E0900FF1BF12983137F18831789
:1003D8000008840A0319FF0A08007F087F398A0089
:0A03E8000408840A0319FF0A8200CA
:100400002D342D342D342D342D342D342D342D34E4
:100410002D342D342D342D342D342D342D342D34D4
:100420002D342D342D342D342D342D342D342D34C4
:100430002D342D342D342D342D342D342D342D34B4
:100440002D342D342D342D342D342D342D342D34A4
:100450002D342D3400340D3420345034723465344E
:10046000733469346F346E3465342034613420342D
:1004700070346134723461342034673469347234D6
:10048000613472342034613420346C34613420346B
:1004900069347A347134753469346534723464344F
:1004A000613420340D3400340D3420344134703440
:1004B00061346334683465342034613420347034FA
:1004C0006134723461342034673469347234613495
:1004D00072342034613420346C3461342034693413
:1004E0007A34713475346934653472346434613407
:1004F00020340D3400340D342034503472346534DB
:10050000733469346F346E34653420346434203489
:100510007034613472346134203467346934723435
:10052000613472342034613420346C3461342034CA
:10053000643465347234653463346834613420342F
:100540000D3400340D34203441347034613463345C
:100550006834653420346434203470346134723447
:100560006134203467346934723461347234203435
:1005700064346534723465346334683461342034EF
:100580000D3400340D342034503472346534633407
:1005900069346F346E3465342034733420347034ED
:1005A000613472346134203472346534743472349A
:1005B0006F346334653464346534723420340D34FC
:1005C00000340D342034503472346534733469345B
:1005D0006F346E34653420347334203470346134B5
:1005E00072346134203472346534743472346F344C
:1005F0006334653464346534723420340D3400342B
:100600000D342034503472346534733469346F34AB
:100610006E3465342034773420347034613472346D
:10062000613420346134763461346E347A34613428
:10063000723420340D3400340D342034473469349E
:10064000723461346E3464346F3420346134203455
:100650006C346134203469347A34713475346934DB
:10066000653472346434613420340D3400340D3414
:100670002034413470346134633468346534203458
:10068000773420347034613472346134203461340E
:10069000763461346E347A346134723420340D34FB
:1006A00000340D34203447346934723461346E348C
:1006B00064346F342034613420346C346134203439
:1006C000643465347234653463346834613420349E
:1006D0000D3400340D3420345234653474347234A3
:1006E0006F34633465346434693465346E3464342F
:1006F0006F3420340D3400340D34203441347634DA
:1007000061346E347A3461346E3464346F3420343E
:100710000D340034073083160317880089010F3029
:100720008316031385008614061586150616071012
:1007300087100711071387170810881008128812EE
:10074000081388138312031385018601870188012A
:100750008901831603130F178F160F160F148113B9
:100760001E30950096141615961516169F131F1217
:100770009F12831203131F083F3980389F001F14F4
:10078000C3309F05203083120313A700A70BC62B8D
:1007900000008316031307158714F93092003F30C9
:1007A0008312031397051708F0390C3897000F30A0
:1007B00095001D08F0390C389D000F309B00CF309C
:1007C00097051D129D128C100330920412158C1C7B
:1007D000EA2BEB2BE72B8C108316031307118710E2
:1007E0008B170B170C17831203130C130B148B1599
:1007F0008316031318121815831603178715D230A2
:100800008316031399009A01831203139817181380
:100810001816831603139816831203138C120C12E6
:1008200008000A128A118A230A128A1183120313FA
:100830009F1488140030A8008330A9000A128A117E
:1008400055240A128A11831203139F18282C292C6D
:10085000232C1F0CAF002F0C0F39003A031D312C35
:10086000322C372C1F08C33904389F00472C1F0C2B
:10087000AF002F0C0F39013A031D3F2C402C452CA3
:100880001F08C33908389F00472CC3309F0520300C
:1008900083120313AF00AF0B4B2C00008312031322
:1008A0009F14232C0A128A1112282A308312031350
:1008B000AA002A08AD00622C2E080A128A11EE2422
:1008C0000A128A11831203132908AB002808AA0010
:1008D000A80A0319A90A2B08FF002A0884000A1293
:1008E0008A11E7210A128A11AC002C08AE002E08EA
:1008F000031D7B2C7C2C5C2C08007330F3007308E8
:10090000F600882C77080A128A11F8240A128A1134
:100910007208F4007108F300F10A0319F20A74086E
:1009200083120313FF00730884000A128A11E7215F
:100930000A128A11F5007508F7007708031DA12C2B
:10094000A22C822C08008312031307140630F10036
:100950003030F000F00BAA2CF10BAA2C000083120F
:10096000031307102F30F100BF30F000F00BB62C4E
:10097000F10BB62CBB2C08008312031307140430B0
:10098000F100E430F000F00BC32CF10BC32C00009D
:100990008312031307103130F1000B30F000F00B1D
:1009A000CF2CF10BCF2CD42C080083120313071487
:1009B0000330F1009730F000F00BDC2CF10BDC2C55
:1009C000E12C8312031307103230F1005830F0008D
:1009D000F00BE82CF10BE82C000008008312031345
:1009E000A7000C1EF42CF52CF12C27089900080008
:1009F000F000831203130C1EFE2CFF2CF92C700840
:040A00009900080051
:04400E00C420FF3F8C
:00000001FF
