:020000040000FA
:060000000A128A110C280F
:10000800FE00030EF1000A08F2000A128A11702895
:100018000A128A110F28F50183010A128A119D28F4
:1000280003308316031788008901033083160313EE
:1000380085008701831203138501860187018801E2
:100048008901831603130F178F160F160F148112C9
:1000580081110115811401148B170B170C178312CA
:1000680003130C13831603139F131F129F1283127B
:1000780003131F083F3980389F00C3309F051F14A2
:100088002130F300F30B4628831603130715871452
:10009800FF3092003F308312031397051708F03999
:1000A8000C3897000F3095001D08F0390C389D006A
:1000B8000F309B00CF3097051D129D128C10033016
:1000C800920412158C1C69286A2866288C108316DD
:1000D8000313071187100800831203130C1F7528D8
:1000E800762896281F0CF000700C0F39003A031D73
:1000F8007E287F2886281E08F0000310700C7C3E9E
:10010800950095281F0CF000700C0F39013A031D5B
:100118008E288F2895281E08F0000310700C7C3E4E
:100128009B000C1372088A00710E8300FE0E7E0E6F
:1001380009000A128A1114200A128A118312031361
:100148009F18A728A828A2281F0CF400740C0F39A0
:10015800013A031DB028B128B428C3309F05B82838
:100168001F08C33904389F002130F400F40BBA2863
:0E017800831203139F14A2280A128A110C2866
:04400E00C420FF3F8C
:00000001FF
