:020000040000FA
:060000000A128A11122809
:10000800FE00030E83120313A3000408A4000A08C9
:10001800A5007F08A6000A128A111A280A128A1156
:100028001528F80183010A128A110D2C0C1F1D28AE
:100038001E2876281F0CA000200C0F39003A031D3B
:10004800262827282E281E08A0000310200C7B3EF7
:10005800950073281F0CA000200C0F39013A031DCE
:10006800362837283E281E08A0000310200C7C3EA6
:100078009B0073281F0CA000200C0F39023A031DA7
:100088004628472873281E08A0002008F800563084
:10009800780203185028512856280A128A11D124A8
:1000A8000A128A11AB30780203185B285C2867288B
:1000B80056307802031C6128622867280A128A11C0
:1000C800B8240A128A11AB307802031C6C286D28F8
:1000D80073280A128A119F240A128A11732883121C
:1000E80003130C130B1C79287A28992886187D2865
:1000F8007E2882280810081688168928861C8528D4
:100108008628892808140812881206198C288D2830
:1001180091288810081788179828061D942895286C
:1001280098288814081388130B108C1E9C289D2867
:10013800CF2977301A06031DA228A328EA280A1215
:100148008A11B8240A128A11063083120313A200F6
:100158001330A100AD30A000A00BB028A10BB0282F
:10016800A20BB0287C30F1008330F2000A128A1109
:1001780079240A128A1183120313081408168816A0
:10018800081388130030F1008230F2000A128A1135
:1001980079240A128A11E130F1008230F2000A1241
:1001A8008A1179240A128A112B30F1008230F20068
:1001B8000A128A1179240A128A117B30F1008230DE
:1001C800F2000A128A1179240A128A1173308312F2
:1001D80003131A06031DF128F228332908140817F7
:1001E8008817081288126A30F1008330F2000A1268
:1001F8008A1179240A128A11023083120313A20089
:100208000430A100B930A000A00B0829A10B0829CF
:10021800A20B08290F290030F1008230F2000A12DF
:100228008A1179240A128A113730F1008330F200DA
:100238000A128A1179240A128A115430F100823084
:10024800F2000A128A1179240A128A11A230F100E6
:100258008230F2000A128A1179240A128A11613056
:10026800831203131A06031D3A293B2981290A120E
:100278008A11D1240A128A118312031388120817CB
:10028800081688131C30F1008330F2000A128A1114
:1002980079240A128A11043083120313A2000C3045
:1002A800A1003330A000A00B5729A10B5729A20B9E
:1002B80057290030F1008230F2000A128A1179249D
:1002C8000A128A11C230F1008230F2000A128A1131
:1002D80079240A128A112B30F1008230F2000A12B6
:1002E8008A1179240A128A117B30F1008230F200D7
:1002F8000A128A1179240A128A11643083120313AC
:100308001A06031D88298929CF290A128A119F24D0
:100318000A128A1183120313881608130812881701
:100328005130F1008330F2000A128A1179240A123E
:100338008A11043083120313A2000C30A100333059
:10034800A000A00BA529A10BA529A20BA529003067
:10035800F1008230F2000A128A1179240A128A11F5
:10036800E130F1008230F2000A128A1179240A126F
:100378008A112B30F1008230F2000A128A11792496
:100388000A128A117B30F1008230F2000A128A11B7
:1003980079240A128A11831203132608FF002508FC
:1003A8008A0024088400230E8300FE0E7E0E0900B6
:1003B800FF1BE62983137F1883170008840A031993
:1003C800FF0A08007F087F398A000408840A031995
:0403D800FF0A820096
:100400002D342D342D342D342D342D342D342D34E4
:100410002D342D342D342D342D342D342D342D34D4
:100420002D342D342D342D342D342D342D342D34C4
:100430002D342D342D342D342D342D342D342D34B4
:100440002D342D342D342D342D342D342D342D34A4
:100450002D342D3400340D3420345034723465344E
:10046000733469346F346E3465342034613420342D
:1004700070346134723461342034673469347234D6
:10048000613472342034613420346C34613420346B
:1004900069347A347134753469346534723464344F
:1004A000613420340D3400340D3420344134703440
:1004B00061346334683465342034613420347034FA
:1004C0006134723461342034673469347234613495
:1004D00072342034613420346C3461342034693413
:1004E0007A34713475346934653472346434613407
:1004F00020340D3400340D342034503472346534DB
:10050000733469346F346E34653420346434203489
:100510007034613472346134203467346934723435
:10052000613472342034613420346C3461342034CA
:10053000643465347234653463346834613420342F
:100540000D3400340D34203441347034613463345C
:100550006834653420346434203470346134723447
:100560006134203467346934723461347234203435
:1005700064346534723465346334683461342034EF
:100580000D3400340D342034503472346534633407
:1005900069346F346E3465342034733420347034ED
:1005A000613472346134203472346534743472349A
:1005B0006F346334653464346534723420340D34FC
:1005C00000340D342034503472346534733469345B
:1005D0006F346E34653420347334203470346134B5
:1005E00072346134203472346534743472346F344C
:1005F0006334653464346534723420340D3400342B
:100600000D342034503472346534733469346F34AB
:100610006E3465342034773420347034613472346D
:10062000613420346134763461346E347A34613428
:10063000723420340D3400340D342034473469349E
:10064000723461346E3464346F3420346134203455
:100650006C346134203469347A34713475346934DB
:10066000653472346434613420340D3400340D3414
:100670002034413470346134633468346534203458
:10068000773420347034613472346134203461340E
:10069000763461346E347A346134723420340D34FB
:1006A00000340D34203447346934723461346E348C
:1006B00064346F342034613420346C346134203439
:1006C000643465347234653463346834613420349E
:1006D0000D3400340D3420345234653474347234A3
:1006E0006F34633465346434693465346E3464342F
:1006F0006F3420340D3400340D34203441347634DA
:1007000061346E347A3461346E3464346F3420343E
:100710000D340034073083160317880089010F3029
:10072000831603138500861406150710871007111A
:1007300007138717081088100812881208138813E7
:1007400083120313850186018701880189018316BD
:1007500003130F178F160F160F1481130630950011
:10076000961416159F131F129F12831203131F084E
:100770003F3980389F001F14C3309F0520308312FB
:100780000313A700A70BC22B000083160313071542
:100790008714F93092003F3083120313970517082E
:1007A000F0390C3897000F3095001D08F0390C38DF
:1007B0009D000F309B00CF3097051D129D128C10AD
:1007C0000330920412158C1CE62BE72BE32B8C10C4
:1007D00083160313071187108B170B170C1783123F
:1007E00003130C130B148B1583160313181218150F
:1007F000831603178715D2308316031399009A01C5
:1008000083120313981718131816831603139816D8
:10081000831203138C120C1208000A128A118A2305
:100820000A128A11831203139F1488140030A8003F
:100830008330A9000A128A1151240A128A118312E4
:1008400003139F18242C252C1F2C1F0CAF002F0CDA
:100850000F39003A031D2D2C2E2C332C1F08C339C1
:1008600004389F00432C1F0CAF002F0C0F39013AA6
:10087000031D3B2C3C2C412C1F08C33908389F001A
:10088000432CC3309F05203083120313AF00AF0BFE
:10089000472C0000831203139F141F2C0A128A1185
:1008A00012282A3083120313AA002A08AD005E2CF6
:1008B0002E080A128A11EA240A128A1183120313DB
:1008C0002908AB002808AA00A80A0319A90A2B08BE
:1008D000FF002A0884000A128A11DC210A128A11F8
:1008E000AC002C08AE002E08031D772C782C582C59
:1008F00008007330F3007308F600842C77080A129E
:100900008A11F4240A128A117208F4007108F300A3
:10091000F10A0319F20A740883120313FF00730823
:1009200084000A128A11DC210A128A11F500750866
:10093000F7007708031D9D2C9E2C7E2C0800831247
:10094000031307140630F1003030F000F00BA62C32
:10095000F10BA62C00008312031307102F30F100B7
:10096000BF30F000F00BB22CF10BB22CB72C08000A
:100970008312031307140430F100E430F000F00B8D
:10098000BF2CF10BBF2C0000831203130710313072
:10099000F1000B30F000F00BCB2CF10BCB2CD02C5A
:1009A00008008312031307140330F1009730F0009E
:1009B000F00BD82CF10BD82CDD2C8312031307106D
:1009C0003230F1005830F000F00BE42CF10BE42C45
:1009D0000000080083120313A7000C1EF02CF12C5A
:1009E000ED2C270899000800F000831203130C1E59
:0C09F000FA2CFB2CF52C70089900080074
:04400E00C420FF3F8C
:00000001FF
