:020000040000FA
:100000000A128A11FC2FFF1B0D2883137F188317F8
:100010000008840A0319FF0A08007F087F398A0054
:0A0020000408840A0319FF0A820095
:100DD400F000831203130C1EF02EF12EEB2E70087C
:100DE400990008000A128A1128270A128A110A1285
:100DF4008A1151270A128A11F92E0A128A1100281F
:100E04007330F3007308F6000D2F77080A128A1165
:100E1400EA260A128A117208F4007108F300F10A32
:100E24000319F20A740883120313FF007308840081
:100E34000A128A1103200A128A11F5007508F700B4
:100E44007708031D262F272F072F08008316031763
:100E54008801890183160313850186018312031314
:100E640085018601831603130F178F160F160F14AF
:100E740018121815831603178715D0308316031319
:100E840099009A01831203139817181318168316DE
:100E940003139816831203138C120C1208000330E8
:100EA400FA008A30F9005530F800F80B572FF90B87
:100EB400572FFA0B572F5E2F8F30F1008830F20036
:100EC4000A128A1102270A128A110330FA008A30A0
:100ED400F9005530F800F80B6D2FF90B6D2FFA0B54
:100EE4006D2F742FB430F1008830F2000A128A1189
:100EF40002270A128A110330FA008A30F9005530A9
:100F0400F800F80B832FF90B832FFA0B832F8A2F0A
:100F1400D930F1008830F2000A128A1102270A122D
:100F24008A110330FA008A30F9005530F800F80BC2
:100F3400992FF90B992FFA0B992FA02FED30F1006F
:100F44008830F2000A128A1102270A128A118312C7
:100F540003138C1EAE2FAF2FA92F31301A06031D99
:100F6400B42FB52FCB2F0630FA001330F900AD3073
:100F7400F800F80BBB2FF90BBB2FFA0BBB2FC22FBA
:100F84006430F1008830F2000A128A1102270A1232
:100F94008A113230831203131A06031DD22FD32F62
:100FA400E42F0030F1008830F2000A128A1102277F
:100FB4000A128A11831203138C1EE12FE22FDC2FF5
:100FC4001A08850033301A06031DE92FEA2FFB2F78
:100FD4003230F1008830F2000A128A1102270A1214
:100FE4008A11831203138C1EF82FF92FF32F1A087A
:100FF4008600080083010A128A11F42E0D3420346D
:10100400533465346C3465346334633469346F3415
:101014006E3461347234203465346C342034633477
:10102400613472346134633474346534723420341A
:101034006134203464346534733470346C3465340E
:10104400673461347234203465346E34203450345F
:101054004F345234543441343A3420340D3400344F
:101064000D342034533465346C3465346334633460
:1010740069346F346E3461347234203465346C34C2
:1010840020346334613472346134633474346534C9
:1010940072342034613420346434653473347034ED
:1010A4006C346534673461347234203465346E349E
:1010B400203450344F345234543442343A3420348B
:1010C4000D3400340D3420344334613472346734C5
:1010D40061346E3464346F3420346C3461342034BD
:1010E40063346134643465346E346134203464347C
:1010F4006534203463346134723461346334743459
:1011040065347234653473342E342E342E342E34D4
:101114002E342E3420340D3400340D342034453430
:101124006C34693467346134203471347534653413
:10113400203461346334633469346F346E3420345E
:1011440064346534733465346134203465346A340A
:101154006534633475347434613472343A3420340D
:101164000D340034203431342E3420344434653486
:10117400733470346C3465346734613472342034BD
:1011840063346134643465346E34613420346434DB
:1011940065342034633461347234613463347434B8
:1011A400653472346534733420340D34003420349F
:1011B40032342E342034433461346D34623469342F
:1011C40061347234203450344F3452345434413402
:1011D40020340D340034203433342E34203443345A
:1011E40061346D346234693461347234203450347F
:0E11F4004F3452345434423420340D3400341D
:04400E00C420FF3F8C
:00000001FF
