:060000000A128A11132907
:10000800F000030EF1000B1812200B1932200C1807
:100018007D20710E8300F00E700E09000313831209
:10002800061CA90A06302902031D1C280230A90053
:10003800861CBB0A15303B0203192A28061DBB0380
:1000480009303B0203192E280B1008000A30BB00A8
:100058000B1008001430BB000B10080003138312A8
:10006800FD3081000B11850127184A28A7184E2852
:1000780027195228A7195628271A5A28A71A5E2876
:10008800271B62283D088700051466283C0887005E
:10009800851469283F08870005156C283E088700E5
:1000A80085156F28410887000516722840088700C3
:1000B80085167528430887000517782842088700A1
:1000C80085177B280130A70608000330A70608001B
:1000D8000630A70608000C30A70608001830A70647
:1000E80008003030A70608006030A7060800A701FE
:1000F800080003138312E1308F007C308E000C104F
:10010800A00A2008023C031D9728A001AA0A311C56
:10011800AE0303193114B11CAF030319B114311D17
:08012800B003031931150800B2
:100200008A010A1482073F3406345B344F34663463
:100210006D347D3407347F34673477347C3439343B
:100220005E3479347134031783168801890103130E
:1002300083168501870188018901860186140615C8
:1002400006148113951415151514572170217F215B
:100250005E2168218D2103138312850187018801A6
:1002600089018601AA01A801B701B801B901BA0143
:100270002E08B20035225D222F08B3003F226422EF
:100280003008B40049226B22371CA0220230290218
:100290000319AD22033029020319B92204302902BF
:1002A0000319C522053029020319D1223829031365
:1002B00083160F178F160F120F14080003138316DF
:1002C0009614161516140313831206080B10080053
:1002D0008B178B160B110C140C108B150B100800C0
:1002E0000313831681128111011581140114031364
:1002F000831203138312FD3081000B1108000313D6
:100300008312901610169010101403138312E1300C
:100310008F007C308E000C1008000A30A100A20073
:10032000A3002108AE002208AF002308B00001306E
:10033000A9000A30BB00FE30B1000800043089007B
:10034000093088002A08053E21020319EF21080020
:10035000023089000930880003302A020319B121D4
:100360000800A81028152208AF00FD30B100AA012E
:100370000800013089000C3088002A08053E22025E
:10038000031902220800013089000A308800033076
:100390002A020319CC210800A81128162308B0004E
:1003A000FB30B100AA01080001308900213088002B
:1003B0002A08053E23020319132208000130890090
:1003C0001130880003302A020319E7210800A8121F
:1003D00028102108AE00FE30B100AA010800091162
:1003E00024222A02013C091524220911242209157C
:1003F0002422091124220915242209112814A814E1
:10040000AA01080008112422081524220811242218
:100410000815242208112422081524220811281165
:10042000A815AA01080088122422881624228812FE
:100430002422881624228812242288162422881234
:100440002812A816AA010800FF30A4002A22A40B33
:10045000262A08008230A5003022A50B2C2A08008D
:100460000130A600A60B322A0800B6010A30B202FB
:100470000318B60A0318362A0A30B2070800B60174
:100480000A30B3020318B60A0318402A0A30B30729
:100490000800B6010A30B4020318B60A03184A2A43
:1004A0000A30B4070800B6010A30B5020318B60ACC
:1004B0000318542A0A30B507080036080021BD0089
:1004C00032080021BC00080036080021BF003308B4
:1004D0000021BE00080036080021C10034080021B8
:1004E000C000080036080021C20035080021C30002
:1004F0000800BB033808A100AE003908A200AF0015
:100500003A08A300B0000130A90037100630B1004E
:10051000A801AA018601C301C20108000130A90097
:10052000BB0A2108AE002208AF002308B000371034
:100530000630B100A801AA018601C301C20108006A
:10054000281C9E21A818A8212819B921A819C3215F
:10055000281AD421A81ADE21080086150612861250
:100560003B08B8003808B200B50035225322722289
:1005700008008611061686123B08B9003908B30038
:10058000B5003F22532272220800861106128616F9
:100590003B08BA003A08B400B5004922532272223F
:1005A000080037148615061686163F308800073077
:0C05B0008900861C7922061D8E2208009E
:04400E00C430FF3F7C
:00000001FF
